:020000023000CC
:10E000000D9472F00D949BF00D949BF00D949BF089
:10E010000D949BF00D949BF00D949BF00D949BF050
:10E020000D949BF00D949BF00D949BF00D949BF040
:10E030000D949BF00D949BF00D949BF00D949BF030
:10E040000D949BF00D949BF00D949BF00D949BF020
:10E050000D949BF00D949BF00D949BF00D949BF010
:10E060000D949BF00D949BF00D949BF00D949BF000
:10E070000D949BF00D949BF00D949BF00D949BF0F0
:10E080000D949BF00D949BF00D949BF00D949BF0E0
:10E090000D949BF00D949BF00D949BF00D949BF0D0
:10E0A0000D949BF00D949BF00D949BF00D949BF0C0
:10E0B0000D949BF00D949BF00D949BF00D949BF0B0
:10E0C0000D949BF00D949BF00D949BF00D949BF0A0
:10E0D0000D949BF00D949BF00D949BF00D949BF090
:10E0E0000D949BF011241FBECFEFD1E2DEBFCDBF58
:10E0F00001E00CBF12E0A0E0B2E0E2EBF8EE03E0DA
:10E100000BBF02C007900D92A430B107D9F722E0EF
:10E11000A4E0B2E001C01D92A730B207E1F70F946E
:10E12000C8F00D9457F401E20EBF0FEF0DBF11249C
:10E130001FBE0D94C8F00D9400F090910602992333
:10E1400061F08093D6008091D00086FFFCCF809153
:10E15000D00080648093D00008958093C6008091A1
:10E16000C00086FFFCCF8091C00080648093C00017
:10E17000089530E020E02817390709F40895EFECFE
:10E18000F7E03197F1F700C000002F5F3F4FF3CF6A
:10E19000CF93DF93CDB7DEB7C352D1400FB6F8941B
:10E1A000DEBF0FBECDBF01E20EBF0FEF0DBF94B7B4
:10E1B000F894A89514BE80916000886180936000F7
:10E1C00010926000789493FF05C0E0910402F091F2
:10E1D00005021995279A2F9A8091C000826080933A
:10E1E000C00020E12093C40098E19093C100809189
:10E1F000D00082608093D0002093D4009093D1000F
:10E20000000010E000E0C12CD12C760157EC852EE7
:10E210005BE1952EA12CB12C8091D00087FD07C029
:10E220008091C00087FD03C001151105E1F0012BAD
:10E2300009F43DC027982F9884E690E00F94B9F038
:10E2400000008091C0008D7F8093C0008091D0003D
:10E250008D7F8093D00081E180935700E895EE2771
:10E26000FF270994FFCF25E02A95F1F700008FEFF3
:10E27000C81AD80AE80AF80A91E080E0A1E2CA16B2
:10E28000AEE4DA06E104F10408F490E0092F182F57
:10E29000C701B601A50194010F9420F4672B682BE8
:10E2A000692B09F0B9CF85B1805885B9B5CF809178
:10E2B000D00087FD26C08091C000807890E021E0EA
:10E2C000029709F020E020930602912C812CC25E77
:10E2D000DE4F188219821A821B82CE51D140412C06
:10E2E000512C320141E050E0CE5DDE4F1882C25227
:10E2F000D140B12CFE0131961F0130E020E080E0DA
:10E300006DC082E090E0DBCF415051096109710995
:10E3100081F46BBFFA01479156914F3F5F4F29F04F
:10E32000EE27FF270994A091060241E052E16AE737
:10E3300070E0AA2361F09091D0009095991F9927E1
:10E34000991F11F7A11153C09091C60052C090912E
:10E35000C000F3CF853009F465C008F45CC0863096
:10E3600009F46FC08730C1F52981233109F492C1C6
:10E3700008F077C0263009F47EC108F067C022306B
:10E3800009F4FCC0233009F416C1213009F066C03D
:10E390001A8288E08B8381E48C8386E58D8382E515
:10E3A0008E8389E48F8383E5888780E589878FE57D
:10E3B0008A8782E38B87A12C0BE010E0A1C09B3100
:10E3C00059F48BE1B82E81E007C0B926CE5DDE4F4F
:10E3D0009883C252D14082E050E040E04130510584
:10E3E00009F0A1CF90910602992309F4ADCF909145
:10E3F000D600833061F008F0ADCF813031F3F8F210
:10E40000292F30E0322F2227B92683E0E5CF292BB0
:10E41000B92684E0E1CF9E30B9F4B926912C812C45
:10E4200085E0DACFA4014F5F5F4FF101E80DF91DE0
:10E430009083B9264A014217530771F6490186E0D5
:10E44000CBCF9B1509F490CF80E0C6CF213109F4E2
:10E45000C1C008F002C1203109F490C080EC8A8369
:10E4600017C1283109F4D2C058F5253109F412C179
:10E4700010F0263199F78A819B8198278927982760
:10E480008C010D5F1F4F1A82243109F090C1D10118
:10E490006BBEF2012791369112962C931297FD01D3
:10E4A000349613963C93139722E0420E511C611C44
:10E4B000711C02971296009759F71082A12C20C068
:10E4C0002A3109F496C008F4B6C02B3109F485C08E
:10E4D0002D3109F0C3CF9D81903309F054C08F8155
:10E4E000882309F464C0813009F063C088E91A8286
:10E4F0001B829C831D828E831F82A12C07E010E06B
:10E500008BE10F949DF0CE5DDE4F8881C252D140E9
:10E510000F949DF0812F0F949DF0802F0F949DF00C
:10E5200095E1B92ECE5DDE4F8881C252D140B8262A
:10E53000B0268EE00F949DF0B126DE0111967D018C
:10E540000A0F1B1FD12CC12C0E151F0509F05AC133
:10E550008B2D0F949DF0CE5DDE4FB881C252D1401D
:10E56000BF5FCE5DDE4FB883C252D14085B18058C7
:10E5700085B9A1105FCE50E040E0BFCEA12C1A8239
:10E5800002E010E0BDCF892F807509F4B0CF89E09B
:10E59000F0E0E0E0903539F080E0983509F0A7CF61
:10E5A00089E0E3E0F0E0809357008491A0CF8EE112
:10E5B0009ECF81E09CCFEA81E05980E0E33020F4F7
:10E5C000F0E0E050FE4F80811A828B83A12C03E0A3
:10E5D00010E096CFAA24A394D2CF8D81882329F06E
:10E5E000813029F488E91A820BC08EE1FCCF81E0EA
:10E5F000FACF1A8289E0E1E0F0E08093570084913D
:10E600008B831C82A12C04E010E07ACF8B818035B3
:10E6100071F48C81883039F489E0E2E0F0E0809395
:10E6200057008491E0CF89E0F0E0E0E0F8CF89E0A6
:10E63000E3E0F0E0F4CF8D81836C99E0E1E0F0E07D
:10E64000082E90935700E89587B7F82FF170AF2EFA
:10E6500080FDFACF1A821B82BACF80EC8A83A12C6C
:10E6600002E010E0C25EDE4F188219821A821B821D
:10E67000CE51D14045CF6A817B818C819D810F94A1
:10E6800042F42B013C01440C551C661C771C1A8279
:10E69000A12C76CF0A811B81102701271027233157
:10E6A00009F05DC0C25EDE4F88819981AA81BB817D
:10E6B000CE51D1408115E0EC9E07E3E0AE07B105F5
:10E6C000E8F423E0FC01A0935B0020935700E89559
:10E6D00007B600FCFDCFC25EDE4F88819981AA811A
:10E6E000BB81CE51D1409F5FAF4FBF4FC25EDE4F67
:10E6F00088839983AA83BB83CE51D1408B85DE0169
:10E700001196B301A2011B969C911B9721E00C016D
:10E71000FA0160935B0020935700E89511244E5F47
:10E720005F4F6F4F7F4F025011091296011511056F
:10E7300021F01A968C911A97E6CF85E0F20160924B
:10E740005B0080935700E89507B600FCFDCF81E1A0
:10E7500080935700E8951A822A013B0199CF7301F3
:10E760006201F694E794D794C7945801A20CB31CA5
:10E770007101C218D308EA14FB0469F430E020E008
:10E78000000F111F221F331FB901A801440D551D91
:10E79000661D771DE0CFD7011A966C91C6018E0DCC
:10E7A0009F1D0F9449F4BFEFEB1AFB0AE4CFF10170
:10E7B0009101280F391FB301A20141BDC52ED62EEC
:10E7C000E72EFF24C2BC4F5F5F4F6F4F7F4FF89A19
:10E7D000A0B5A28331962E173F0779F7AC014150BF
:10E7E000510970E060E04F5F5F4F6F4F7F4F440E05
:10E7F000551E661E771EE3E0F0E0EC0FFD1FE80FEC
:10E80000F91F5BCEF70121917F01CD5DDE4F28839B
:10E81000C352D140822F0F949DF0CD5DDE4F888191
:10E82000C352D140B8269FEFC91AD90AAAE5CA1621
:10E83000D10408F489CE84E690E00F94B9F082CE3A
:10E84000A1E21A2EAA1BBB1BFD010DC0AA1FBB1FF4
:10E85000EE1FFF1FA217B307E407F50720F0A21B66
:10E86000B30BE40BF50B661F771F881F991F1A94D3
:10E8700069F760957095809590959B01AC01BD01FD
:10E88000CF01089569279627692778278727782752
:10E890000895262FF999FECF1FBA92BD81BD20BDE4
:10E8A0000FB6F894FA9AF99A0FBE01960895F89463
:02E8B000FFCF98
:04E8B2000F020A0047
:040000033000E000E9
:00000001FF
